S01F000053544B333730305F6672656572746F735F626C696E6B5F322E73333750
S113000000000220B1040000DD040000DD04000053
S1130010DD040000DD040000DD040000DD04000058
S1130020DD040000DD040000DD040000710B0000AD
S1130030DD040000DC040000110D0000590D000077
S1130040DD040000DD040000DD040000DD04000028
S1130050DD040000DD040000DD040000DD04000018
S1130060DD040000DD040000DD040000DD04000008
S1130070DD040000DD040000DD040000DD040000F8
S1130080DD040000DD040000DD040000DD040000E8
S1130090DD040000DD040000DD040000DD040000D8
S11300A0DD040000DD040000DD040000DD040000C8
S11300B0DD040000DD040000DD040000D543000081
S11300C0DD040000DD040000DD040000DD040000A8
S11300D0DD040000DD040000DD04000010B5054C63
S11300E0237833B9044B13B10448AFF300800123E0
S11300F0237010BD8800002000000000E8490000C3
S113010008B5034B1BB103490348AFF3008008BD96
S1130110000000008C000020E8490000154B002B73
S113012008BF134B9D46A3F5803A00218B460F462A
S11301301348144A121A04F08AFA0F4B002B00D009
S113014098470E4B002B00D0984700200021040054
S11301500D000D48002802D00C48AFF3008004F0D5
S113016047FA2000290004F0F7F904F02DFA00BF43
S11301700000080000000220000000000000000051
S1130180880000206025002000000000000000001E
S113019080B582B000AF03463960FB71FB79002B58
S11301A01FD0FB79012B19D0FB79022B13D0FB79DB
S11301B0032B0DD0FB79042B07D0FB79052B02D13F
S11301C041F6FF730FE000230DE04FF6FF730AE0E2
S11301D04FF6FF7307E04FF6FF7304E04FF6FF732B
S11301E001E04FF6FF733A68134103F00103002B5B
S11301F004D140F20B410A4802F002FC01223B68A0
S113020002FA03F30749FA7918461346DB0013444C
S11302109B000B441033186000BF0837BD4680BDF7
S11302207C4600000060004080B582B000AF034609
S11302303960FB71FB79002B1FD0FB79012B19D09E
S1130240FB79022B13D0FB79032B0DD0FB79042B04
S113025007D0FB79052B02D141F6FF730FE0002391
S11302600DE04FF6FF730AE04FF6FF7307E04FF619
S1130270FF7304E04FF6FF7301E04FF6FF733A6833
S1130280134103F00103002B04D140F226410A4834
S113029002F0B6FB01223B6802FA03F30749FA793C
S11302A018461346DB0013449B000B4418331860B4
S11302B000BF0837BD4680BD7C460000006000409A
S11302C080B582B000AF0121104802F0DBFF0121AC
S11302D00F4802F0D7FF00237B600FE00D4A7B68D4
S11302E012F833000B4A7B68DB001344596800237F
S11302F0042203F021FE7B6801337B607B68012BC1
S1130300ECDD002318460837BD4680BD408104005B
S113031000D20400E046000080B582B000AF7860EF
S11303207B68002B10DB7B68012B0DDC094A7B68A2
S113033012F83300074A7B68DB0013445B681946F4
S1130340FFF726FF002301E04FF0FF33184608377C
S1130350BD4680BDE046000080B582B000AF786045
S11303607B68002B10DB7B68012B0DDC094A7B6862
S113037012F83300074A7B68DB0013445B681946B4
S1130380FFF752FF002301E04FF0FF331846083710
S1130390BD4680BDE046000080B582B000AF3A4B58
S11303A05B6C394A43F400535364384BD3F820311F
S11303B0364A43F00403C2F82031344BD3F82031D9
S11303C0324A23F44073C2F82031304BD3F8B830AA
S11303D02E4A23F47063C2F8B8302C4BD3F8B830EB
S11303E02A4A43F48063C2F8B830274B10221A62B9
S11303F000BF254BDB6A03F02003002BF9D0244B0C
S11304001B68234A43F001031360214BDB68204A35
S113041043F08073D3601F4B1F4A1A601F4802F0D9
S11304209FFF034603F5D52303F2FC437B607B68FF
S1130430DB081B4AA2FB03239B0A3B60194A3B6867
S1130440013B1361174B0222C3F8F020154B4FF404
S11304508072C3F804234FF06043134AC3F8B02FEB
S11304604FF06043114AC3F8802E4FF06043D3F835
S1130470003E4FF0604243F00103C2F8003E012306
S113048018460837BD4680BD00800C40006000401F
S1130490F0ED00E0001000E0FF13014006000E0044
S11304A017916502000004E055CEACC509000100B7
S11304B0064880470649074A074B9A42BEBF51F88F
S11304C0040B42F8040BF8E7FFF728FE550600007A
S11304D0F44900000000002088000020FEE700BF6F
S11304E080B400AF034BDB6C1B0EDBB21846BD4679
S11304F080BC7047B081E00F80B582B000AF00F0DF
S11305001FF87860074B5B6803F00F037A6822FAE0
S113051003F37B60044A7B6813607B6818460837E2
S1130520BD4680BD00800C400800002080B400AFB0
S1130530024B1846BD4680BC704700BF006CDC020D
S113054080B582B000AF334BDB6A03F47053B3F56C
S1130550805F0AD0B3F5005F03D0B3F5006F08D015
S11305600BE02D4B1B687B6047E04FF400437B603E
S113057043E02A4B1B687B603FE0264BDB6803F4B7
S1130580E063B3F5007F1BD0B3F5007F05D8002BE3
S113059024D0B3F5807F16D02BE0B3F5806F09D05B
S11305A0B3F5A06F03D0B3F5407F06D021E01C4B18
S11305B07B6021E01B4B7B601EE01B4B7B601BE0E0
S11305C01A4B7B6018E0FFF78BFF0346122B02D90E
S11305D0174B7B6010E0174B7B600DE0FFF780FF4B
S11305E00346122B02D9144B7B6005E0134B7B604E
S11305F002E000237B6000BF00BF064B1B689B0B1F
S113060003F0070301337A68B2FBF3F318460837A3
S1130610BD4680BD00800C40040000200000002086
S1130620003FAB01406F4001809FD500C0D8A700B8
S113063040B56400C0CF6A00804F120040420F00F2
S113064080B400AF024B1B681846BD4680BC70479F
S11306500000002080B400AF034B044A9A6000BF3E
S1130660BD4680BC704700BF00ED00E00000000004
S113067080B400AF4FF400431846BD4680BC7047B9
S113068080B400AF4FF47A731846BD4680BC7047FF
S113069080B400AF024B1B681846BD4680BC70474F
S11306A00400002080B400AF054B1B69044A23F00A
S11306B00403136130BF00BFBD4680BC704700BF58
S11306C000ED00E080B582B000AF0346FB71074B3C
S11306D01B68002B04D0054B1B68FA791046984719
S11306E0012318460837BD4680BD00BFB000002076
S11306F080B582B000AF78603960124A7B681360BD
S1130700114B124A1A60104A3B685360104B002286
S11307101A700F4B00225A7003F046FD034603F48F
S11307208073002B09D003F015FD074B5B68002B89
S113073003D0054B5B680420984700BF0837BD46CB
S113074080BD00BFB0000020A4000020C50600004A
S1130750B400002080B584B000AF0023FB730023F5
S1130760BB6003F077F9786000F03CF80346FB7057
S1130770FB78022B02D0FB78032B01D103F00CFB96
S113078000F030F80346FB70FB78002B08D0FB78B0
S1130790032B05D8FB78184600F042F80346FB7398
S11307A00F4B9B68002B05D00D4B9B68FA7B1046C2
S11307B09847B860BB6803F00103002BE0D1FB7BD2
S11307C0022B02D0FB7B032B01D103F0ECFA7868F7
S11307D003F04FF9FB7B18461037BD4680BD00BFC0
S11307E0A400002080B483B000AF0123FB710B4B45
S11307F01B78002B07D10223FB71084B5B78002B7D
S113080001D10323FB71FB79032B01D90323FB7172
S1130810FB7918460C37BD4680BC7047B4000020F5
S113082080B584B000AF0346FB710123FB73FB79F1
S1130830002B02D0FB79042B04D94FF4CB7121484F
S113084002F0DEF8204B1B68002B06D01E4B1B6801
S1130850FA79104698470346FB73FB7B83F0010348
S1130860DBB2002B01D0002327E0FB79013B032BF3
S113087018D801A252F823F0890800008F0800005C
S1130880970800009F080000FFF70CFF0BE0002012
S113089003F0CEF907E0002003F01AFA03E003F0B6
S11308A089FA00E000BF084B5B68002B04D0064BBC
S11308B05B68FA7910469847FB7918461037BD46AD
S11308C080BD00BFF0460000A400002080B584B0C5
S11308D000AF78600023FB607B6803F00703002B04
S11308E004D07B6823F0070308337B6001F0A2F88F
S11308F0164B1B68002B05D1154B23F007031A4632
S1130900124B1A60134B1A687B68134442F21F326D
S1130910934213D80F4B1A687B681A440D4B1B681B
S11309209A420BD9094B1A680A4B1B681344FB60A3
S1130930084B1A687B681344064A136001F088F870
S1130940FB6818461037BD4680BD00BFE423002075
S1130950C0000020E023002080B582B000AF7860A2
S11309607B68002B03D0B821034802F049F800BF8C
S11309700837BD4680BD00BF0447000080B483B083
S113098000AF78607B6803F108027B685A607B687B
S11309904FF0FF329A607B6803F108027B68DA60EB
S11309A07B6803F108027B681A617B6800221A6085
S11309B000BF0C37BD4680BC704780B483B000AF25
S11309C078607B6800221A6100BF0C37BD4680BC8A
S11309D0704780B485B000AF786039607B685B682D
S11309E0FB603B68FA685A60FB689A683B689A60E7
S11309F0FB689B683A685A60FB683A689A603B688F
S1130A007A681A617B681B685A1C7B681A6000BF8D
S1130A101437BD4680BC704780B485B000AF7860A1
S1130A2039603B681B68BB60BB68B3F1FF3F03D10F
S1130A307B681B69FB600CE07B680833FB6002E0A9
S1130A40FB685B68FB60FB685B681B68BA689A427A
S1130A50F6D2FB685A683B685A603B685B683A6840
S1130A609A603B68FA689A60FB683A685A603B6827
S1130A707A681A617B681B685A1C7B681A6000BF1D
S1130A801437BD4680BC704780B485B000AF786031
S1130A907B681B69FB607B685B687A6892689A6014
S1130AA07B689B687A6852685A60FB685B687A68FE
S1130AB09A4203D17B689A68FB685A607B6800227B
S1130AC01A61FB681B685A1EFB681A60FB681B6886
S1130AD018461437BD4680BC7047000080B485B00A
S1130AE000AFF860B9607A60FB68043BFB60FB68A8
S1130AF04FF080721A60FB68043BFB60BB6823F014
S1130B000102FB681A60FB68043BFB60084AFB684F
S1130B101A60FB68143BFB607A68FB681A60FB6828
S1130B20203BFB60FB6818461437BD4680BC704709
S1130B30350B000080B582B000AF094B1B68B3F1E0
S1130B40FF3F03D0FF21074801F05AFF4FF0BF03D6
S1130B5083F31188BFF36F8FBFF34F8F7B60FEE782
S1130B600C000020244700000000000000000000EA
S1130B70074B19680868B0E8F00F80F30988BFF3E1
S1130B806F8F4FF0000080F311884EF00D0E704708
S1130B90F023002000BF00BF06480068006880F30F
S1130BA0088862B661B6BFF34F8FBFF36F8F00DF63
S1130BB000BF00BF08ED00E080B584B000AF284B53
S1130BC0FB60FB681B78DBB2BB60FB68FF221A701A
S1130BD0FB681B78DBB2FB71FB79DBB223F04003CB
S1130BE0DAB2204B1A70204B07221A6009E01E4B20
S1130BF01B68013B1C4A1360FB79DBB25B00DBB270
S1130C00FB71FB79DBB203F08003802BEFD0164B32
S1130C101B681B02144A1360134B1B6803F4E06344
S1130C20114A1360BB68DAB2FB681A700F4B1B6879
S1130C300E4A43F47F0313600C4B1B680B4A43F0CA
S1130C407F43136003F004FC094B00221A60FFF792
S1130C50A3FFFFF76FFF002318461037BD4680BD82
S1130C6000E400E0E8230020EC23002020ED00E075
S1130C700C00002080B582B000AF4FF0BF0383F3B7
S1130C801188BFF36F8FBFF34F8F7B600B4B1B68D3
S1130C9001330A4A1360094B1B68012B09D1084B25
S1130CA01B68DBB2002B04D04FF4C671054801F079
S1130CB0A7FE00BF0837BD4680BD00BF0C00002062
S1130CC004ED00E02447000080B582B000AF0D4B76
S1130CD01B68002B04D140F293110B4801F090FEE5
S1130CE0084B1B68013B074A1360064B1B68002B2B
S1130CF004D100237B607B6883F3118800BF08372D
S1130D00BD4680BD0C000020244700000000000008
S1130D10EFF30980BFF36F8F0D4B1A6820E9F00FD2
S1130D2010602DE908404FF0BF0080F3118800F0F7
S1130D30EFFF4FF0000080F31188BDE80840196808
S1130D400868B0E8F00F80F30988BFF36F8F70472D
S1130D50F023002000BF00BF80B582B000AF4FF089
S1130D60BF0383F31188BFF36F8FBFF34F8F7B6093
S1130D7000F014FF0346002B03D0064B4FF08052C3
S1130D801A6000233B603B6883F3118800BF083777
S1130D90BD4680BD04ED00E080B582B000AFEFF346
S1130DA005837B607B680F2B0ED9104A7B68134444
S1130DB01B78FB700E4B1B78FA789A4204D240F2EF
S1130DC0AB210C4801F01CFE0B4B1B6803F4E062E2
S1130DD00A4B1B689A4204D940F2BB21054801F032
S1130DE00FFE00BF0837BD4680BD00BFF0E300E042
S1130DF0E8230020244700000CED00E0EC23002051
S1130E0080B584B000AF786039607B68FB60FB68B4
S1130E10002B04D14FF49471294801F0F1FDFFF740
S1130E2029FFFB681A68FB68DB6BF968096C01FB36
S1130E3003F31A44FB685A60FB6800229A63FB6858
S1130E401A68FB689A60FB681A68FB68DB6B013BF5
S1130E50F968096C01FB03F31A44FB68DA60FB6868
S1130E60FF2283F84420FB68FF2283F845203B6877
S1130E70002B14D1FB681B69002B1AD0FB681033BC
S1130E80184600F0E3FF0346002B12D00D4B4FF041
S1130E9080521A60BFF34F8FBFF36F8F09E0FB6876
S1130EA010331846FFF76AFDFB6824331846FFF732
S1130EB065FDFFF709FF012318461037BD4680BDC5
S1130EC04447000004ED00E080B58AB002AFF8604A
S1130ED0B9601346FB71FB68002B04D140F29511F5
S1130EE0134801F08DFDBB68002B02D10023FB6188
S1130EF004E0FB68BA6802FB03F3FB61FB69483357
S1130F001846FFF7E3FCB861BB69002B0BD0BB6943
S1130F1048337B61FA79BB69009313467A69B968EF
S1130F20F86800F007F8BB6918462037BD4680BD55
S1130F304447000080B584B000AFF860B9607A60BF
S1130F40FB70BB68002B03D1BB69BA691A6002E06D
S1130F50BB697A681A60BB69FA68DA63BB69BA6804
S1130F601A640121B869FFF74BFF00BF1037BD4673
S1130F7080BD000080B58AB000AFF860B9607A60C7
S1130F803B6000237B62FB683B623B6A002B04D11D
S1130F9040F2E621624801F033FDBB68002B08D122
S1130FA03B6A1B6C002B04D040F2E7215C4801F043
S1130FB027FD3B68022B08D13B6ADB6B012B04D075
S1130FC04FF43A71564801F01BFD01F0D7F803467F
S1130FD0002B07D17B68002B04D040F2EB21504852
S1130FE001F00EFDFFF746FE3B6A9A6B3B6ADB6B32
S1130FF09A4202D33B68022B29D13A68B968386A0D
S113100000F00CFAF8613B6A5B6A002B10D03B6A73
S11310102433184600F01AFF0346002B13D0414B2B
S11310204FF080521A60BFF34F8FBFF36F8F0AE007
S1131030FB69002B07D03B4B4FF080521A60BFF383
S11310404F8FBFF36F8FFFF73FFE012363E07B6891
S1131050002B03D1FFF738FE00235CE07B6A002BF2
S113106006D107F11403184600F04EFF01237B62FA
S1131070FFF72AFE00F0DEFCFFF7FCFD3B6A93F865
S113108044305BB2B3F1FF3F03D13B6A002283F8E3
S113109044203B6A93F845305BB2B3F1FF3F03D180
S11310A03B6A002283F84520FFF70EFE3A1D07F144
S11310B014031146184600F045FF0346002B24D1C3
S11310C0386A00F0A3FA0346002B18D03B6A1033A9
S11310D07A681146184600F071FE386A00F02EFA5C
S11310E000F0B6FC0346002B7FF47CAF0D4B4FF0B1
S11310F080521A60BFF34F8FBFF36F8F72E7386A65
S113110000F01CFA00F0A4FC6CE7386A00F016FA50
S113111000F09EFC002318462837BD4680BD00BF62
S11311204447000004ED00E080B58CB000AFF860E7
S1131130B9607A603B60FB68BB62BB6A002B04D178
S11311404FF46B71364801F05BFCBB68002B08D18F
S1131150BB6A1B6C002B04D040F2AD31304801F067
S11311604FFC3B68022B08D1BB6ADB6B012B04D01C
S113117040F2AE312A4801F043FCFFF70DFEEFF3D5
S113118011824FF0BF0383F31188BFF36F8FBFF356
S11311904F8FFA61BB61FB697B62BB6A9A6BBB6A66
S11311A0DB6B9A4202D33B68022B2CD1BB6A93F8C7
S11311B0453087F823303A68B968B86A00F02EF9E8
S11311C097F92330B3F1FF3F12D1BB6A5B6A002B5E
S11311D016D0BB6A2433184600F038FE0346002BB1
S11311E00ED07B68002B0BD07B6801221A6007E0CD
S11311F097F823300133DBB25AB2BB6A83F8452037
S11312000123FB6201E00023FB627B6A7B617B6953
S113121083F31188FB6A18463037BD4680BD00BF92
S11312204447000080B58AB000AFF860B9607A60C6
S11312303B6000237B62FB683B623B6A002B04D16A
S113124040F2E941734801F0DBFBBB68002B08D195
S11312503B6A1B6C002B04D040F2EA416D4801F05C
S1131260CFFB00F08BFF0346002B07D17B68002BDC
S113127004D040F2ED41674801F0C2FBFFF7FAFCED
S11312803B6A9B6BFB61FB69002B46D03B6ADB68C6
S1131290BB61B968386A00F02BF93B68002B21D197
S11312A0FB695A1E3B6A9A633B6A1B68002B04D194
S11312B001F074F802463B6A5A603B6A1B69002BD2
S11312C027D03B6A1033184600F0C0FD0346002BBC
S11312D01FD0514B4FF080521A60BFF34F8FBFF3B2
S11312E06F8F16E03B6ABA69DA603B6A5B6A002B6F
S11312F00FD03B6A2433184600F0A8FD0346002BA8
S113130007D0454B4FF080521A60BFF34F8FBFF3A5
S11313106F8FFFF7D9FC012377E07B68002B03D1A3
S1131320FFF7D2FC002370E07B6A002B06D107F1A3
S11313301003184600F0E8FD01237B62FFF7C4FCAC
S113134000F078FBFFF796FC3B6A93F844305BB2FD
S1131350B3F1FF3F03D13B6A002283F844203B6A88
S113136093F845305BB2B3F1FF3F03D13B6A0022EF
S113137083F84520FFF7A8FC3A1D07F11003114636
S1131380184600F0DFFD0346002B31D1386A00F027
S113139027F90346002B25D03B6A1B68002B08D194
S11313A0FFF768FC3B6A5B68184600F005FFFFF72F
S11313B08BFC3B6A24337A681146184600F0FEFC25
S11313C0386A00F0BBF800F043FB0346002B7FF4BF
S11313D055AF114B4FF080521A60BFF34F8FBFF3DC
S11313E06F8F4BE7386A00F0A9F800F031FB45E74E
S11313F0386A00F0A3F800F02BFB386A00F0F0F82C
S11314000346002B3FF43AAF002318462837BD4665
S113141080BD00BF4447000004ED00E080B586B005
S113142000AFF860B9607A6000237B61FB689B6B56
S11314303B61FB681B6C002B0DD1FB681B68002B08
S11314404DD1FB685B68184600F02CFF7861FB689F
S113145000225A6043E07B68002B19D1FB6898682E
S1131460FB681B6C1A46B96803F0E6F8FB689A68D7
S1131470FB681B6C1A44FB689A60FB689A68FB68FB
S11314805B689A422BD3FB681A68FB689A6026E073
S1131490FB68D868FB681B6C1A46B96803F0CCF883
S11314A0FB68DA68FB681B6C5B421A44FB68DA6011
S11314B0FB68DA68FB681B689A4207D2FB685A68C3
S11314C0FB681B6C5B421A44FB68DA607B68022B86
S11314D005D13B69002B02D03B69013B3B613B6971
S11314E05A1CFB689A637B6918461837BD4680BD51
S11314F080B582B000AF786039607B681B6C002BCC
S113150018D07B68DA687B681B6C1A447B68DA60E5
S11315107B68DA687B685B689A4203D37B681A68E5
S11315207B68DA607B68D9687B681B6C1A4638680C
S113153003F082F800BF0837BD4680BD80B584B093
S113154000AF7860FFF796FB7B6893F84530FB7338
S113155011E07B685B6A002B12D07B682433184649
S113156000F074FC0346002B01D000F041FDFB7B2E
S1131570013BDBB2FB7397F90F30002BE9DC00E091
S113158000BF7B68FF2283F84520FFF79DFBFFF730
S113159071FB7B6893F84430BB7311E07B681B6973
S11315A0002B12D07B681033184600F04FFC034622
S11315B0002B01D000F01CFDBB7B013BDBB2BB73F5
S11315C097F90E30002BE9DC00E000BF7B68FF22B6
S11315D083F84420FFF778FB00BF1037BD4680BD79
S11315E080B584B000AF7860FFF744FB7B689B6BE9
S11315F0002B02D10123FB6001E00023FB60FFF715
S113160063FBFB6818461037BD4680BD80B584B0C7
S113161000AF7860FFF72EFB7B689A6B7B68DB6B0F
S11316209A4202D10123FB6001E00023FB60FFF733
S11316304BFBFB6818461037BD4680BD80B485B0AF
S113164000AF786039600023FB6014E00E4AFB6849
S113165052F83330002B0BD10B49FB683A6841F840
S11316603320094AFB68DB0013447A685A6005E0BA
S1131670FB680133FB60FB68092BE7D900BF143713
S1131680BD4680BC704700BF1025002080B586B0E1
S113169000AFF860B9607A60FB687B61FFF7EAFA33
S11316A07B6993F844305BB2B3F1FF3F03D17B69AC
S11316B0002283F844207B6993F845305BB2B3F190
S11316C0FF3F03D17B69002283F84520FFF7FCFA32
S11316D07B699B6B002B06D17B6924337A68B968DC
S11316E0184600F08BFB7869FFF728FF00BF183716
S11316F0BD4680BD80B58CB004AFF860B9603B6076
S11317001346FB80FB889B001846FFF7DFF87861DF
S11317107B69002B0ED05020FFF7D8F8F861FB69E5
S1131720002B03D0FB697A691A6305E07869FFF737
S113173013F901E00023FB61FB69002B13D0FA8845
S113174000230393FB690293FB6A0193BB6A009332
S11317503B68B968F86800F00FF8F86900F088F899
S11317600123BB6102E04FF0FF33BB61BB69184644
S11317702037BD4680BD000080B586B000AFF8605C
S1131780B9607A603B60BB6A1A6B7B6803F1804383
S1131790013B9B0013443B613B6923F007033B611E
S11317A03B6903F00703002B04D04FF44E712F481C
S11317B001F026F900237B6112E0BA687B691344C7
S11317C01978BA6A7B69134434330A461A70BA68C2
S11317D07B6913441B78002B06D07B6901337B6142
S11317E07B69092BE9D900E000BFBB6A002283F8BA
S11317F03D203B6A022B01D902233B62BB6A3A6A51
S1131800DA62BB6A3A6A1A64BB6A00225A64BB6A27
S113181004331846FFF7D1F8BB6A18331846FFF7AC
S1131820CCF8BB6ABA6A1A613B6AC3F10302BB6AA9
S11318309A61BB6ABA6A5A62BB6A00229A64BB6A3A
S1131840002283F84C203A68F9683869FFF746F9B2
S11318500246BB6A1A607B6A002B02D07B6ABA6AB2
S11318601A6000BF1837BD4680BD00BF6047000046
S113187080B582B000AF7860FFF7FCF92A4B1B6893
S11318800133294A1360294B1B68002B09D1274ACD
S11318907B681360244B1B68012B10D100F0BEFB46
S11318A00DE0234B1B68002B09D1204B1B68DA6A1F
S11318B07B68DB6A9A4202D81C4A7B6813601D4B22
S11318C01B6801331B4A13607B68DB6A01229A4060
S11318D0194B1B681343184A13607B68DA6A134672
S11318E09B0013449B00154A1A447B680433194631
S11318F01046FFF76EF8FFF7E7F90D4B1B68002B56
S11319000ED00A4B1B68DA6A7B68DB6A9A4207D2FC
S11319100B4B4FF080521A60BFF34F8FBFF36F8FA2
S113192000BF0837BD4680BDA0240020F02300205E
S1131930AC240020BC240020A8240020F423002090
S113194004ED00E080B584B000AF78600023FB6054
S11319507B68002B11D0104B1B68002B04D040F285
S1131960DC410E4801F04CF800F064F8002178687E
S113197000F028FD00F06CF8F860FB68002B07D13C
S1131980074B4FF080521A60BFF34F8FBFF36F8F36
S113199000BF1037BD4680BDC8240020604700004A
S11319A004ED00E080B584B002AF1B4B019300232B
S11319B0009300238C2219491948FFF79BFE786095
S11319C07B68012B02D100F063FD78607B68012BFA
S11319D015D14FF0BF0383F31188BFF36F8FBFF3AB
S11319E04F8F3B600F4B4FF0FF321A600E4B0122BA
S11319F01A600E4B00221A60FFF7DEF808E07B68DD
S1131A00B3F1FF3F04D140F29171094800F0F8FFAF
S1131A1000BF0837BD4680BDC42400207C470000B9
S1131A2009200000C0240020AC240020A4240020AD
S1131A306047000080B400AF044B1B680133034AC5
S1131A40136000BFBD4680BC704700BFC82400209F
S1131A5080B584B000AF0023FB600023BB603E4B25
S1131A601B68002B04D140F2F5713C4800F0C8FF1C
S1131A70FFF700F9384B1B68013B374A1360364BBC
S1131A801B68002B61D1364B1B68002B5DD02EE008
S1131A90344BDB68DB68FB60FB6818331846FEF7E1
S1131AA0F3FFFB6804331846FEF7EEFFFB68DB6ABE
S1131AB001229A402C4B1B6813432B4A1360FB688A
S1131AC0DA6A13469B0013449B00284A1A44FB68B5
S1131AD0043319461046FEF77CFFFB68DA6A244B90
S1131AE01B68DB6A9A4202D3224B01221A601D4B07
S1131AF01B68002BCCD1FB68002B01D000F01AFB33
S1131B001D4B1B687B607B68002B10D000F046F8EF
S1131B100346002B02D0174B01221A607B68013B5D
S1131B207B607B68002BF1D1134B00221A60114BB0
S1131B301B68002B09D00123BB60104B4FF080526F
S1131B401A60BFF34F8FBFF36F8FFFF7BDF8BB6809
S1131B5018461037BD4680BDC824002060470000E9
S1131B60A024002060240020A8240020F4230020C6
S1131B70F0230020B4240020B024002004ED00E071
S1131B8080B483B000AF044B1B687B607B6818464D
S1131B900C37BD4680BC7047A424002080B586B0B5
S1131BA000AF00237B614E4B1B68002B40F0878005
S1131BB04C4B1B6801333B614A4A3B6913603B69E8
S1131BC0002B1AD1484B1B681B68002B04D040F62D
S1131BD0E611464800F014FF434B1B68FB60444B7E
S1131BE01B68414A1360424AFB681360414B1B68FF
S1131BF00133404A136000F09DFA3F4B1B683A6979
S1131C009A424DD3384B1B681B68002B01D101232A
S1131C1000E00023002B04D0374B4FF0FF321A6052
S1131C203EE0314B1B68DB68DB68BB60BB685B680C
S1131C307B603A697B689A4203D22F4A7B681360BF
S1131C402EE0BB6804331846FEF71EFFBB689B6A90
S1131C50002B04D0BB6818331846FEF715FFBB6889
S1131C60DB6A01229A40254B1B681343234A136005
S1131C70BB68DA6A13469B0013449B00204A1A444B
S1131C80BB68043319461046FEF7A3FEBB68DA6A44
S1131C901C4B1B68DB6A9A42B4D301237B61B1E716
S1131CA0184B1B68DA6A164913469B0013449B00C1
S1131CB00B441B68012B07D901237B6104E0124B01
S1131CC01B680133104A1360104B1B68002B01D0B2
S1131CD001237B617B6918461837BD4680BD00BF70
S1131CE0C8240020A42400205824002060470000B9
S1131CF05C240020B8240020C0240020A824002054
S1131D00F4230020F0230020B0240020B424002079
S1131D1080B584B000AF234B1B68002B03D0224B4B
S1131D2001221A6039E0204B00221A601F4B1B6805
S1131D307B607B68B3FA83F3FB70FB78C3F11F030A
S1131D40FB601B49FA6813469B0013449B000B4439
S1131D501B68002B04D140F60331164800F050FEF6
S1131D60FA6813469B0013449B00114A1344BB605A
S1131D70BB685B685A68BB685A60BB685A68BB68D2
S1131D8008339A4204D1BB685B685A68BB685A60DE
S1131D90BB685B68DB68084A136000BF1037BD4648
S1131DA080BD00BFC8240020B4240020A824002043
S1131DB0F423002060470000F023002080B582B0A7
S1131DC000AF786039607B68002B04D140F6133192
S1131DD0084800F015FE084B1B681833194678684C
S1131DE0FEF71AFE0121386800F0ECFA00BF08374C
S1131DF0BD4680BD60470000F023002080B584B05C
S1131E0000AFF860B9607A60FB68002B04D140F63B
S1131E103E310C4800F0F4FD0B4B1B681833194697
S1131E20F868FEF7D6FD7B68002B02D04FF0FF3335
S1131E30BB607968B86800F0C5FA00BF1037BD46CA
S1131E4080BD00BF60470000F023002080B584B04F
S1131E5000AF78607B68DB68DB68BB60BB68002B25
S1131E6004D140F66E31214800F0CAFDBB68183336
S1131E701846FEF709FE1E4B1B68002B1CD1BB68DD
S1131E8004331846FEF700FEBB68DB6A01229A4061
S1131E90184B1B681343174A1360BB68DA6A13466E
S1131EA09B0013449B00144A1A44BB68043319462C
S1131EB01046FEF78EFD05E0BB68183319460F483F
S1131EC0FEF787FDBB68DA6A0D4B1B68DB6A9A4232
S1131ED005D90123FB600B4B01221A6001E00023AA
S1131EE0FB60FB6818461037BD4680BD60470000A4
S1131EF0C8240020A8240020F4230020602400200B
S1131F00F0230020B424002080B582B000AF7860B4
S1131F107B68002B04D140F6CE31074800F070FDF9
S1131F20064B1A687B681A60054B1A687B685A600E
S1131F3000BF0837BD4680BD60470000B8240020BC
S1131F40A424002080B584B000AF786039607B6839
S1131F50002B04D140F6D831224800F051FD3B68F3
S1131F60002B04D140F6D9311E4800F049FDFEF79C
S1131F7081FE1D4B1B68BB603B681B68B3F1FF3FD0
S1131F8002D10023FB6026E07B681A68174B1B68AC
S1131F909A4207D07B685B68BA689A4202D30123ED
S1131FA0FB6018E07B685B68BA68D21A3B681B6800
S1131FB09A420ED23B681A687B685968BB68CB1A90
S1131FC01A443B681A607868FFF79EFF0023FB60A1
S1131FD001E00123FB60FEF777FEFB68184610372B
S1131FE0BD4680BD60470000A4240020B824002022
S1131FF080B400AF034B01221A6000BFBD4680BC11
S1132000704700BFB424002080B582B000AF786070
S113201000F044F802F0D8F9FAE7000080B582B085
S113202000AF00237B600CE07A6813469B001344E6
S11320309B00124A13441846FEF7A0FC7B68013348
S11320407B607B68022BEFD90D48FEF797FC0D48A7
S1132050FEF794FC0C48FEF791FC0C48FEF78EFC4E
S11320600B48FEF78BFC0B4B054A1A600A4B054ADA
S11320701A6000BF0837BD4680BD00BFF4230020AE
S113208030240020442400206024002074240020F4
S11320908C240020582400205C24002080B582B0C9
S11320A000AF28E0FFF7C6FC174B1B68002B0CBFE2
S11320B001230023DBB27B60FFF7CAFC7B68002BA3
S11320C019D1FEF7D7FD104BDB68DB683B603B683A
S11320D004331846FEF7D8FC0C4B1B68013B0B4A33
S11320E013600B4B1B68013B094A1360FEF7ECFDC0
S11320F0386800F00FF8064B1B68002BD2D100BFE4
S11321000837BD4680BD00BF74240020A0240020F1
S11321108824002080B582B000AF78607B681B6B98
S11321201846FEF719FC7868FEF716FC00BF08375E
S1132130BD4680BD80B483B000AF0E4B1B681B68E6
S1132140002B01D1012300E00023002B04D00A4B13
S11321504FF0FF321A6008E0064B1B68DB68DB684F
S11321607B607B685B68044A136000BF0C37BD4624
S113217080BC704758240020C024002080B483B061
S113218000AF0B4B1B68002B02D101237B6008E0DE
S1132190084B1B68002B02D102237B6001E0002363
S11321A07B607B6818460C37BD4680BC704700BF17
S11321B0AC240020C824002080B584B000AF78602F
S11321C07B68FB607B68002B62D0FB68DA6A324B69
S11321D01B68DB6A9A425BD2FB689B69002B06DBB7
S11321E02D4B1B68DB6AC3F10302FB689A61FB6831
S11321F05969FB68DA6A13469B0013449B00274A1B
S11322001344994201D1012300E00023002B3AD06A
S1132210FB6804331846FEF737FC0346002B15D140
S1132220FB68DA6A1D4913469B0013449B000B4468
S11322301B68002B0AD1FB68DB6A012202FA03F354
S1132240DA43174B1B681340154A1360124B1B6883
S1132250DA6AFB68DA62FB68DB6A01229A40104B97
S11322601B6813430E4A1360FB68DA6A13469B002B
S113227013449B00094A1A44FB6804331946104668
S1132280FEF7A7FB04E0044B1B68DA6AFB68DA621A
S113229000BF1037BD4680BDF0230020F42300208A
S11322A0A824002080B584B000AF78607B68BB6050
S11322B00023FB607B68002B62D0344B1B68BA6838
S11322C09A4204D040F6D461314800F099FBBB68CF
S11322D05B6C002B04D140F6D6612D4800F090FBD6
S11322E0BB685B6C5A1EBB685A64BB68DA6ABB681D
S11322F01B6C9A4244D0BB685B6C002B40D1BB681A
S113230004331846FEF7C0FB0346002B15D1BB6807
S1132310DA6A204913469B0013449B000B441B6854
S1132320002B0AD1BB68DB6A012202FA03F3DA4309
S1132330194B1B681340184A1360BB681A6CBB68BE
S1132340DA62BB68DB6AC3F10302BB689A61BB68EB
S1132350DB6A01229A40104B1B6813430E4A136038
S1132360BB68DA6A13469B0013449B00094A1A446B
S1132370BB68043319461046FEF72BFB0123FB60B0
S1132380FB6818461037BD4680BD00BFF02300200F
S113239060470000F4230020A824002080B400AF8C
S11323A0074B1B68002B04D0054B1B685A6C013289
S11323B05A64034B1B681846BD4680BC704700BF77
S11323C0F023002080B584B000AF78603960294BD9
S11323D01B68FB60284B1B6804331846FEF754FB4C
S11323E00346002B0BD1244B1B68DB6A012202FA43
S11323F003F3DA43214B1B681340204A13607B68C4
S1132400B3F1FF3F0AD13B68002B07D01A4B1B687E
S1132410043319461A48FEF7DCFA26E0FA687B68AA
S11324201344BB60144B1B68BA685A60BA68FB68F3
S11324309A4209D2134B1A680F4B1B68043319468E
S11324401046FEF7E9FA10E00F4B1A680A4B1B68B6
S1132450043319461046FEF7DFFA0C4B1B68BA68C2
S11324609A4202D2094ABB68136000BF1037BD46C6
S113247080BD00BFA4240020F0230020A824002055
S11324808C2400205C24002058240020C024002038
S113249080B584B002AF00237B6000F07BFA0E4B62
S11324A01B68002B0AD00D4B0193022300930023D9
S11324B08C220B490B48FFF71DF978607B68002BD1
S11324C004D14FF4A071084800F09AFA7B681846CA
S11324D00837BD4680BD00BFFC2400200025002035
S11324E084470000F92500008C47000080B588B0BF
S11324F000AFF860B9607A603B600023FB61FB6861
S1132500002B04D140F2B3111B4800F079FA1B4BA5
S11325101B68002B2AD0BB683B617B687B61FB682E
S1132520BB61BB68052B18DCFFF728FE0346022BB2
S113253009D1124B186807F110010023BA6AFEF79B
S113254019FDF86112E00D4B186807F11001002322
S11325500022FEF70FFDF86108E0084B186807F148
S1132560100100233A68FEF7DFFDF861FB691846A5
S11325702037BD4680BD00BF8C470000FC240020EE
S113258080B586B002AF78603960194B1B68DB6890
S1132590DB68FB60FB6804331846FEF775FAFB68DA
S11325A0DB69012B1CD1FB689A697B68D1187B68B5
S11325B03A68F86800F0C4F80346002B10D00023F2
S11325C0009300237A680021F868FFF78FFFB86052
S11325D0BB68002B04D140F21521064800F010FA24
S11325E0FB685B6AF868984700BF1037BD4680BD3A
S11325F0F42400208C47000080B584B000AF7860DC
S113260007F10803184600F057F8F860BB6819464C
S1132610F86800F003F800F0D5F8F1E780B584B06D
S113262000AF78603960FFF705FA07F10803184630
S113263000F066F8F860BB68002B30D13B68002BD3
S11326400AD17A68FB689A4206D8FFF701FAF9685A
S11326507868FFF795FF24E03B68002B08D0134B04
S11326601B681B68002B0CBF01230023DBB23B60FB
S11326700F4B18687A68FB68D31A3A681946FFF753
S113268005F8FFF7E5F90346002B0AD1094B4FF093
S113269080521A60BFF34F8FBFF36F8F01E0FFF7D3
S11326A0D7F900BF1037BD4680BD00BFF824002015
S11326B0FC24002004ED00E080B485B000AF786015
S11326C00E4B1B681B68002B0CBF01230023DBB2DD
S11326D01A467B681A607B681B68002B05D1074B80
S11326E01B68DB681B68FB6001E00023FB60FB6880
S11326F018461437BD4680BC704700BFF424002040
S113270080B584B000AF7860FFF73AFAF8600B4BFD
S11327101B68FA689A4205D200F0DEF87B68012251
S11327201A6002E07B6800221A60044AFB681360A6
S1132730FB6818461037BD4680BD00BF0425002045
S113274080B586B000AFF860B9607A603B60002362
S11327507B61FB68BA685A60FB68FA681A61BA68F8
S11327607B689A4212D87A683B68D21AFB689B69E4
S11327709A4202D301237B611BE0104B1A68FB6869
S1132780043319461046FEF747F912E07A683B68AD
S11327909A4206D2BA683B689A4202D301237B610B
S11327A007E0074B1A68FB68043319461046FEF726
S11327B033F97B6918461837BD4680BDF8240020DC
S11327C0F424002080B58AB002AF71E0BB68002B0E
S11327D06DDB3B69FB61FB695B69002B04D0FB6922
S11327E004331846FEF750F93B1D1846FFF788FFDF
S11327F0B861BB68092B5BD801A252F823F000BF73
S1132800292800002928000029280000B1280000F8
S11328107B280000A72800002928000029280000A0
S1132820B12800007B280000FA68FB699B69D11875
S1132830FB68BA69F869FFF783FF0346002B37D0BA
S1132840FB695B6AF8699847FB69DB69012B2FD147
S1132850FA68FB699B691A44002300930023002152
S1132860F869FFF743FE78617B69002B20D140F2C1
S11328702E31174800F0C4F81AE0FA68FB699A612F
S1132880FB699B69002B04D140F24531104800F0EC
S1132890B7F8FB699A69BB69D118BB69BA69F86969
S11328A0FFF74EFF04E0F869FEF756F800E000BFBA
S11328B0084B186807F1080100230022FEF7B2FC58
S11328C00346002B82D100BF2037BD4680BD00BF28
S11328D08C470000FC24002080B588B002AF3FE0A4
S11328E0294B1B68DB681B683B61274B1B68DB6853
S11328F0DB68FB60FB6804331846FEF7C5F8FB6829
S11329005B6AF8689847FB68DB69012B28D1FB6890
S11329109B693A691344BB60BA683B699A420ED911
S1132920FB68BA685A60FB68FA681A61164B1A6841
S1132930FB68043319461046FEF76EF810E00023D6
S1132940009300233A690021F868FFF7CFFD78600F
S11329507B68002B04D140F29F310C4800F050F802
S1132960094B1B681B68002BBAD1074B1B687B61A2
S1132970074B1B68044A1360054A7B69136000BF58
S11329801837BD4680BD00BFF42400208C470000EA
S1132990F824002080B500AFFEF76CF9124B1B68D9
S11329A0002B1DD11148FDF7E9FF1148FDF7E6FFA3
S11329B0104B0E4A1A60104B0D4A1A6000220C216B
S11329C00A20FEF781FA0246074B1A60064B1B6881
S11329D0002B05D0044B1B6808491846FEF72EFE51
S11329E0FEF772F900BF80BDFC240020CC24002037
S11329F0E0240020F4240020F8240020AC47000048
S1132A0080B483B000AF78603960FEE780B487B0EB
S1132A1000AFF860B9607A60FB6803F10473DA0010
S1132A20BB6813449B007B617B697A681A6000BFB2
S1132A301C37BD4680BC704780B483B000AF78605B
S1132A40034A7B68136300BF0C37BD4680BC7047E4
S1132A500010084080B582B000AF0346FB71FB79DB
S1132A601A4600210348FFF7D1FF00BF0837BD46CF
S1132A7080BD00BF3810084080B584B000AF7860D6
S1132A807B68002B03D07B68B3F5004F03D9462144
S1132A900748FFF7B5FF7B68B3FA83F3DBB2C3F1F2
S1132AA01F03FB60FB6818461037BD4680BD00BF9E
S1132AB0B447000080B483B000AF78600F4B9B6BC9
S1132AC003F00103002B13D10C4B1B6803F4405398
S1132AD0002B0DD0094B1B6803F00803082B07D00B
S1132AE000BF064BDA6B7B681340002BF9D100E082
S1132AF000BF0C37BD4680BC704700BF00100840C3
S1132B0080B584B000AF78607B68002B03D1872147
S1132B103F48FFF775FF7B689B68002B03D07B68F9
S1132B209B68802B03D989213948FFF769FF7B68AB
S1132B30DB68062B03D98D213548FFF761FF7B68DD
S1132B401B78002B0BD07B681B78012B03D17B688F
S1132B505B78002B03D191212D48FFF751FF7B684F
S1132B609B88B3F5405F0CD17B689B88B3F5405FCD
S1132B7003D17B689B7C002B03D095212448FFF76D
S1132B803FFF7B689B681846FFF776FFF8607B6819
S1132B901B78002B02D00120FFF75CFF0120FFF718
S1132BA089FF7B689A7C1B4B5A607B685B7843F097
S1132BB00803DBB21A467B689B789B0013437A6850
S1132BC0527C12011A437B68DB685B011A43FB6881
S1132BD01B0213437A68928813437A68127C920327
S1132BE01343BB604FF0FF30FFF726FF094ABB6871
S1132BF013607B681B78002B05D0012000F00CF8D3
S1132C000020FFF727FF00BF1037BD4680BD00BF7F
S1132C10B44700000010084080B582B000AF0346FE
S1132C20FB71FB79012B05D10D4B1B6803F00303EA
S1132C30002B07D1FB79002B04D04FF48171094894
S1132C40FFF7DEFEFB7983F00103DBB21A460321B2
S1132C500348FFF7DBFE00BF0837BD4680BD00BF59
S1132C6000100840B447000080B582B000AF78601F
S1132C7039607B68002B04D04FF489710648FFF754
S1132C80BFFE0220FFF716FF044A3B68D36000BF73
S1132C900837BD4680BD00BFB4470000001008409F
S1132CA080B582B000AF78607B68002B04D04FF40D
S1132CB098710448FFF7A4FE034BDB6818460837F5
S1132CC0BD4680BDB44700000010084080B500AF89
S1132CD0012203210448FFF799FE00220321024840
S1132CE0FFF794FE00BF80BD0010084080B487B099
S1132CF000AFF860B9607A60FB6803F10473DA002E
S1132D00BB6813449B007B617B697A681A6000BFCF
S1132D101C37BD4680BC704780B485B000AF786076
S1132D2039607B6803F10473DA003B6813449B0049
S1132D30FB60FB681B6818461437BD4680BC7047AF
S1132D4080B584B000AF78607B68002B03D07B68CB
S1132D50B3F5004F04D940F6A9210748FFF750FE08
S1132D607B68B3FA83F3DBB2C3F11F03FB60FB6838
S1132D7018461037BD4680BD3048000080B400AF0F
S1132D80034BDB6C1B0EDBB21846BD4680BC7047A0
S1132D90B081E00F80B400AF034BDB6C1B0CDBB2E3
S1132DA01846BD4680BC7047B081E00F80B582B044
S1132DB000AFFFF7EFFF03464A2B04D0792B02D074
S1132DC0482B23D024E0174B1B699BB21B029BB2F8
S1132DD003F47C53FB80134B9B691B091B0103F019
S1132DE0F0039AB2FB881343FB800E4BDB691B098B
S1132DF003F00F039AB2FB881343FB80FB88B3F5FF
S1132E00017F01D3084B09E0084B07E0074B05E0BD
S1132E1040F659410648FFF7F3FD002318460837EA
S1132E20BD4680BDD0FF0FE000366E010048E801CA
S1132E309448000080B584B000AF78600123FB6043
S1132E40FFF7B4FF02467B68934204D80023FB607B
S1132E500023BB600BE0FFF7A9FF03465B007A6821
S1132E609A4202D80123BB6001E00223BB60FA68E6
S1132E701E210848FFF73AFF064B5B6823F4807273
S1132E80BB681B02034913434B6000BF1037BD46A8
S1132E9080BD00BF00800C4080B582B000AF1E2111
S1132EA00448FFF739FF78607B6818460837BD4649
S1132EB080BD00BF00800C4080B582B000AF244BC1
S1132EC05B6903F4E063B3F5007F1CD0B3F5007FC6
S1132ED005D8002B25D0B3F5807F1FD02AE0B3F5A9
S1132EE0C06F24D0B3F5E06F1ED0B3F5407F21D17D
S1132EF0FFF744FF0346122B02D9164B7B6021E0F7
S1132F00154B7B601EE0FFF739FF0346122B02D9F5
S1132F10124B7B6016E0124B7B6013E0114B7B601D
S1132F2010E0114B7B600DE0104B7B600AE0104B0E
S1132F307B6007E000237B6040F6D8410D48FFF733
S1132F405FFD00BF7B6818460837BD4680BD00BFE3
S1132F5000800C40804F120040420F0040B56400D6
S1132F60C0CF6A00C0D8A700809FD500406F400141
S1132F70003FAB019448000080B582B000AF0F4819
S1132F8000F0E0FA0346FB70FB78072B05D0092B11
S1132F9007D1FDF7D5FA78600BE0FFF78DFF786075
S1132FA007E000237B6040F612510548FFF728FD37
S1132FB000BF7B6818460837BD4680BD06000E007A
S1132FC09448000080B485B000AF78603960204B2D
S1132FD05B6803F00703FB60FB68012B01D9042B3A
S1132FE002D10023FB7202E00123FB7200BF7B6865
S1132FF0184A934207D9FB7A002B01D0052300E03D
S11330000423FB6016E07B68124A93420BD87B686A
S1133010114A934207D9FB7A002B01D0032300E025
S11330200123FB6006E0FB7A002B01D0022300E0C1
S11330300023FB60064B5B6823F007020449FB682E
S113304013434B6000BF1437BD4680BC704700BFBC
S113305000000C400048E8010024F40080B582B070
S113306000AF0E4BDB6B002B14BF01230023FB715D
S11330700A4B41F67132DA63FDF758FA0346002130
S11330801846FFF79FFFFB79002B02D0034B002269
S1133090DA6300BF0837BD4680BD00BF00000C40A6
S11330A080B584B000AF786039600C4BDB6B002BCB
S11330B014BF01230023FB73084B41F67132DA631A
S11330C039687868FFF77EFFFB7B002B02D0034B47
S11330D00022DA6300BF1037BD4680BD00000C40FB
S11330E090B585B000AF78600023BB607B683B4A35
S11330F0934208D03A4A934205D04FF47561394857
S1133100FFF77EFC00E000BF786800F01BFA03467E
S1133110FB607B68314A934203D0314A934206D024
S11331200CE0314B9B6A03F00303FB600CE02E4B75
S11331309B6A9B0803F00303FB6005E040F67F7184
S11331402848FFF75DFC00BFFB68032B38D801A2B9
S113315052F823F08B310000653100006D3100001E
S113316075310000FDF784FAB86032E0FDF790FA9B
S1133170B8602EE0FDF7C0F90446FFF78DFE034664
S1133180013324FA03F3BB6023E00023BB607B68B4
S1133190124A934203D07B68114A934218D1124BCE
S11331A09A6A7B680D498B4201D1102300E01423F5
S11331B022FA03F3002B0BD0FDF762FAB86007E0A4
S11331C00023BB6040F6AA710648FFF719FC00E033
S11331D000BFBB6818461437BD4690BD02001E00F0
S11331E0030020009448000000800C4080B483B0A9
S11331F000AF7860094B5B6D03F00103002B07D12E
S113320000BF064B1A6D7B681340002BF9D100E018
S113321000BF0C37BD4680BC704700BF00800C4027
S113322080B582B000AF104800F08CF90346FB7003
S1133230FB78032B07D0092B09D0022B0BD1FDF708
S113324027FA78600AE0FDF713FA786006E0FDF7E4
S113325077F9786002E000237B6000BF7B68184642
S11332600837BD4680BD00BF0723260080B400AFE9
S113327000BFBD4680BC704780B400AF00BFBD46F0
S113328080BC704780B586B000AF78600B46FB7099
S113329000233B617B681B0A03F00F03013B092BEE
S11332A033D801A252F823F0E5320000EB320000DB
S11332B0D13200000B3300000B330000F132000068
S11332C0FB3200000B3300000B3300000533000019
S11332D01B4B7B611B4800F043F803461846FFF77D
S11332E0A9FD18E0184B7B6115E0184B7B6112E0D7
S11332F0174B7B6101233B610DE0164B7B6110236F
S11333003B6108E0144B7B6105E041F2DB3113487B
S1133310FFF776FB10E07B681B0B03F01F03FB60D9
S11333203B69002B02D03869FFF760FFFB781A462F
S1133330F9687869FFF7DAFC1837BD4680BD00BF2D
S113334040800C400043020008800C4044800C4044
S113335058800C4060800C4078800C4094480000F9
S113336090B585B000AF78607B6803F47813B3F54B
S1133370D01F00F0AB80B3F5D01F1AD8B3F5602F7F
S113338000F0BF80B3F5602F08D8B3F5003F3CD000
S1133390B3F5802F2DD0002B27D0BEE0B3F5901FBE
S11333A03CD0B3F5B01F47D0B3F5801F00F0AD801B
S11333B0B3E0B3F5181F00F0AC80B3F5181F0AD8BA
S11333C0B3F5F01F25D0B3F5001F7AD0B3F5E01F95
S11333D000F08980A1E0B3F5301F4ED0B3F5381F5B
S11333E062D0B3F5281F35D097E0FDF7A9F8F8604F
S11333F09BE0FDF7A5F8F8604E4B9B6803F00F03C4
S1133400FA6822FA03F3FB608FE0FDF775F8F860C1
S11334108BE04948FFF764FEF86086E04648FFF712
S11334205FFEF860434B9B6E1B0903F00F03FA68C1
S113343022FA03F3FB6078E03F48FFF751FEF8609F
S11334403C4B9B6E1B0A03F00F03FA6822FA03F34A
S1133450FB606AE03848FFF743FEF860354B9B6E2B
S11334601B0B03F003041020FFF76AFC03462344FC
S1133470FA6822FA03F3FB6057E02F48FFF730FEA7
S1133480F8602C4B9B6E1B0B03F00303FA6822FAC3
S113349003F3FB60274BDB6F03F007030133FA6888
S11334A0B2FBF3F3FB6040E02348FFF719FEF8603A
S11334B0204B9B6E03F00303FA6822FA03F3FB60CC
S11334C033E01E48FFF70CFEF8602EE01B48FFF7C0
S11334D007FEF860174B1B6F03F00303FA6822FA28
S11334E003F3FB6021E01548FFF7FAFDF860114B88
S11334F01B6F1B0903F00303FA6822FA03F3FB6052
S113350013E0FFF739FDF8600FE0FFF7D5FCF86032
S11335100BE0FFF785FEF86007E00023FB6041F253
S113352001510748FFF76CFA00BFFB6818461437CF
S1133530BD4690BD00800C4002001E000300200028
S11335409448000080B584B000AF78600123FB7319
S11335507B6803F00F03BB60BB68013B062B00F2E2
S1133560938001A252F823F085350000BB3500009A
S1133570F735000089360000893600003336000034
S113358055360000474BDB6A03F47053B3F5805F94
S113359009D0B3F5005F03D0B3F5006F06D008E09F
S11335A00223FB7308E00323FB7305E00423FB738E
S11335B002E00523FB7300BF6EE03A4B9B6A03F005
S11335C00303022B06D0032B07D0012B08D10323BE
S11335D0FB730FE00223FB730CE00623FB7309E08B
S11335E0304B9B6A03F48033002B02D00A23FB7315
S11335F000E000BF50E02B4B9B6A03F00C03082B48
S113360006D00C2B07D0042B08D10323FB730FE047
S11336100223FB730CE00623FB7309E0214B9B6A36
S113362003F48013002B02D00A23FB7300E000BFD5
S113363032E01C4B1B6803F08053002B03D0B3F122
S1133640805F03D028E00723FB7302E00923FB73A8
S113365000BF21E0134BDB6A03F46033B3F5803F12
S113366008D0B3F5003F08D0B3F5004F08D10923C3
S1133670FB7308E00223FB7305E00323FB7302E002
S11336800123FB7300BF07E00023FB7341F62811FD
S11336900548FFF7B5F900BFFB7B18461037BD4658
S11336A080BD00BF00800C409448000080B588B005
S11336B000AF78600B46FB700323FB610323FB76AA
S11336C000233B617B6803F00F03FB60FB68013B55
S11336D0062B00F2478101A252F823F0F9360000CC
S11336E0EF370000EF37000065390000653900004E
S11336F0BD380000F3380000FB78023B082B52D899
S113370001A252F823F000BF2D3700003737000024
S11337104137000083370000A7370000A7370000B7
S1133720A7370000A73700009B3700000423FB6184
S11337300023FB763DE00323FB610123FB7638E0A5
S11337400223FB610223FB76FFF730FB03460133C0
S11337501846FFF76FFBFCF773FF0246864B9A424D
S113376006D9864B1B68854A43F06003136020E04A
S1133770824B1B6823F06003804A43F020031360EC
S113378017E00123FB610323FB76FFF70FFB0346DE
S113379001331846FFF74EFB0BE041F6E911784878
S11337A0FFF72EF9E4E041F6EE117548FFF728F92A
S11337B0DEE0FB7E01220121184600F0E7F8FFF766
S11337C04DFCFFF753FD6D4AFB6953626D48FFF7EB
S11337D0C7FD03461846FFF72DFBFCF78DFEB860C6
S11337E00021B868FFF75CFCFFF746FDC0E0FB78FA
S11337F0013B092B3CD801A252F823F025380000E4
S11338002B3800003B38000071380000713800008C
S11338104B38000071380000713800007138000026
S11338206738000000237B6128E001220121002089
S113383000F0ACF802237B6120E001220121012089
S113384000F0A4F801237B6118E0FCF755FEB86092
S1133850B868FFF7EFFA012204214B48FFF746FA54
S113386003237B610AE000237B6101233B6105E0C4
S113387041F699214248FFF7C3F879E0FB68022B2F
S11338800DD13E4B9B6A23F4803323F003037A6902
S11338901A433B691B04394913438B6268E0374B75
S11338A09B6A23F4801323F00C037A6992001A4371
S11338B03B691B05314913438B6259E0FB78072BA5
S11338C002D0092B07D00DE02C4B1B682B4A23F0A8
S11338D0805313600CE0294B1B68284A43F0805343
S11338E0136005E041F6F4212548FFF789F83FE02D
S11338F03EE0FB78032B13D0092B21D0022B2AD1D5
S113390001220121002000F041F81C4B40225A62A0
S113391000BF1A4BDB6A03F48033002BF9D020E09C
S113392001220121012000F031F8144B60225A6277
S113393000BF124BDB6A03F40033002BF9D010E014
S11339400E4B20225A6200BF0C4BDB6A03F4004387
S1133950002BF9D005E041F633310948FFF750F860
S113396006E005E041F629410548FFF749F800BFA4
S11339702037BD4680BD00BF0048E80100800C40F0
S1133980944800000043020040800C4080B586B09B
S113399000AF0346FB710B46BB7113467B71FB7989
S11339A0042B32D801A252F823F000BFF9390000E9
S11339B0EB390000CF390000C1390000DD390000C7
S11339C001233B610223FB6001237B6123E0042389
S11339D03B610823FB6003237B611CE010233B61F4
S11339E02023FB6005237B6115E040233B6180239A
S11339F0FB6007237B610EE04FF480733B614FF45F
S1133A000073FB6009237B6105E042F22F010E483D
S1133A10FEF7F6FF14E0BB79002B0ED00B4A3B698E
S1133A2013627B79002B0BD000BF79690848FFF73C
S1133A3073F90346002BF8D002E0044AFB681362D2
S1133A401837BD4680BD00BF9448000000800C407C
S1133A502C800C4080B483B000AFEFF310833B6044
S1133A603B687B6072B67B6818460C37BD4680BCE9
S1133A70704780B483B000AF78607B68002B00D1BE
S1133A8062B600BF0C37BD4680BC704780B500AF3E
S1133A90FCF732FD00BF80BD80B400AF034B4AF693
S1133AA0E8529A6000BFBD4680BC704700600C407D
S1133AB080B400AF034B0022C3F8842000BFBD468E
S1133AC080BC704700800C4080B400AF044B45F6C6
S1133AD00E02C3F8842000BFBD4680BC704700BFFF
S1133AE000800C4080B584B000AF0346FB71FB79C5
S1133AF0002B0BD12B4BDB6A2B4A13601120FFF7F1
S1133B0021FD03461A46294B1A7047E0254BD3F88A
S1133B10843003F00103FB60FFF7D6FF0023BB6092
S1133B20214B1B6803F00103BA681343BB601E4BAF
S1133B301B6803F01003BA681343BB601A4B1B687D
S1133B4003F04003BA681343BB60174B1B6803F0D0
S1133B500403BA681343BB60134B1B6803F48073FC
S1133B60BA681343BB600F4ABB6813620F4B1B78E0
S1133B70052B05D00D4B1B7819461120FFF796FD38
S1133B80094B1B6803F00103002B02D1054B0222F1
S1133B901A62FB68002B01D0FFF78AFF00BF1037C1
S1133BA0BD4680BD00800C40082500200C25002067
S1133BB080B483B000AF174B1B699BB21B029BB24E
S1133BC003F47C53FB80134B9B691B091B0103F01B
S1133BD0F0039AB2FB881343FB800E4BDB691B098D
S1133BE003F00F039AB2FB881343FB80FB88B3F501
S1133BF0827F03D3FB88B3F5017F01D1012300E069
S1133C00002303F00103DBB218460C37BD4680BC29
S1133C10704700BFD0FF0FE080B400AF00BFBD46C7
S1133C2080BC704780B400AF00BFBD4680BC704705
S1133C3080B586B000AF0346FB71FB79002B02D040
S1133C400020FFF74FFF1F4B1B691E4A43F004037C
S1133C501361FFF7ADFF0346FB75FB7D002B11D00D
S1133C60194B1A68194B1340FB60174AFB68C2F8DA
S1133C708030154B5B6823F046033B61124A3B6975
S1133C80C2F88430FFF7C8FF30BFFFF7CBFFFB7DDE
S1133C90002B05D00C4AFB6813600B4A3B69536048
S1133CA0FB79002B02D00120FFF71CFFFB7983F086
S1133CB00103DBB2002B01D0FFF7E8FE00BF183789
S1133CC0BD4680BD00ED00E000E100E09CF1FD0098
S1133CD080B586B000AF0346FB71FB79002B02D0A0
S1133CE00020FFF7FFFE284BD3F8843003F00103D4
S1133CF07B61FFF7E9FE244B4FF420721A627B6963
S1133D00002B01D0FFF7D4FE204B1B691F4A43F060
S1133D1004031361FFF74CFF0346FB74FB7C002B89
S1133D2011D01B4B1A681B4B1340BB60184ABB686D
S1133D30C2F88030164B5B6823F04603FB60144ADC
S1133D40FB68C2F88430FFF767FF30BFFFF76AFFF4
S1133D50FB7C002B05D00E4ABB6813600C4AFB6841
S1133D605360FB79002B02D00120FFF7BBFEFB79E7
S1133D7083F00103DBB2002B01D0FFF787FE00BF05
S1133D801837BD4680BD00BF00800C4000ED00E048
S1133D9000E100E09CF1FD0080B500AF0020FFF7DA
S1133DA0A1FE00BF80BD80B500AF0120FFF79AFEE1
S1133DB000BF80BD80B584B000AF124B1B6823F0F8
S1133DC00C0343F00803BB600E4B1B6843F00C0369
S1133DD07B60FFF761FE0023FB6008E0094ABB68D3
S1133DE01360084A7B681360FB680133FB60FB685F
S1133DF0032BF3DD034ABB68136000BF1037BD46D5
S1133E0080BD00BF00600C4080B582B000AF0346A7
S1133E103960FB71FB79002B1FD0FB79012B19D082
S1133E20FB79022B13D0FB79032B0DD0FB79042BE8
S1133E3007D0FB79052B02D141F6FF730FE0002375
S1133E400DE04FF6FF730AE04FF6FF7307E04FF6FD
S1133E50FF7304E04FF6FF7301E04FF6FF733A6817
S1133E60134103F00103002B04D14FF477710A4886
S1133E70FEF7C6FD01223B6802FA03F30749FA790B
S1133E8018461346DB0013449B000B44143318609C
S1133E9000BF0837BD4680BDA84800000060004050
S1133EA080B582B000AF03463960FB71FB79002B0B
S1133EB01FD0FB79012B19D0FB79022B13D0FB798E
S1133EC0032B0DD0FB79042B07D0FB79052B02D1F2
S1133ED041F6FF730FE000230DE04FF6FF730AE095
S1133EE04FF6FF7307E04FF6FF7304E04FF6FF73DE
S1133EF001E04FF6FF733A68134103F00103002B0E
S1133F0004D140F20B410A48FEF77AFD01223B68D6
S1133F1002FA03F30749FA7918461346DB001344FF
S1133F209B000B441033186000BF0837BD4680BDAA
S1133F30A84800000060004080B584B000AFB960BC
S1133F407B600346FB731346BB73FB7B002B1FD0C4
S1133F50FB7B012B19D0FB7B022B13D0FB7B032BA8
S1133F600DD0FB7B042B07D0FB7B052B02D141F644
S1133F70FF730FE000230DE04FF6FF730AE04FF6E6
S1133F80FF7307E04FF6FF7304E04FF6FF7301E0A1
S1133F904FF6FF73BA68134103F00103002B04D1F9
S1133FA040F21B113948FEF72BFDBB7B002B0DD0D3
S1133FB07B68002B05D0FB7BB9681846FFF770FFC0
S1133FC004E0FB7BB9681846FFF71EFFBB68072BAC
S1133FD020D82F49FA7B1346DB0013449B000B4483
S1133FE004331A68BB689B000F2101FA03F3DB4317
S1133FF01340B97BBA68920001FA02F211462448D0
S1134000FA7B19431346DB0013449B000344043337
S1134010196025E01E49FA7B1346DB0013449B001C
S11340200B4408331A68BB6803F18043083B9B00C8
S11340300F2101FA03F3DB4302EA0301BA7BBB68F5
S113404003F18043083B9B0002FA03F31048FA7B18
S113405019431346DB0013449B00034408331960DF
S1134060BB7B002B0DD17B68002B05D0FB7BB96893
S11340701846FFF715FF04E0FB7BB9681846FFF705
S1134080C3FE00BF1037BD4680BD00BF0C49000011
S11340900060004080B485B000AF78607B68FB604E
S11340A0FB6893FAA3F3BB60BB68B3FA83F3DBB298
S11340B018461437BD4680BC704780B487B000AF43
S11340C0F860B9607A60FB6803F10473DA00BB68D6
S11340D013449B007B617B697A681A6000BF1C37BC
S11340E0BD4680BC7047000080B400AF034B002283
S11340F09A6000BFBD4680BC704700BF00600C40A2
S113410080B400AF034B4AF6E8529A6000BFBD4644
S113411080BC704700600C4080B584B000AF03469B
S11341200A46FB711346BB71FB791846FFF7B2FFD1
S1134130F860BB79002B14BF01230023DBB21A46BD
S1134140F9680348FFF7B9FF00BF1037BD4680BDCB
S113415000A00C4080B582B000AF104B01229A60E1
S11341600F4B9B6803F001037B607B68002B01D03D
S1134170FFF7C6FF012200210A48FFF79EFF002235
S113418000210848FFF799FF7B68002B01D0FFF757
S1134190ABFF00BF0837BD4680BD00BF00A00C4088
S11341A000600C4024600C4080B485B000AF174B15
S11341B05B687B600023FB600023BB601CE0144A47
S11341C0BB68DB0013445B683B60114ABB6852F870
S11341D033207B681340002B0BD07A683B68134074
S11341E0002B06D10A4ABB6852F83330FA681343ED
S11341F0FB60BB680133BB60BB680F2BDFD9FB6876
S113420018461437BD4680BC704700BF00A00C4060
S11342102049000080B584B000AF78607B68002B33
S113422003D146211B48FEF7EBFB1B4B5B69DBB25A
S11342309B00DBB203F03C03FB73174B1B699B0928
S1134240DBB203F00303DAB2FB7B1343FB737B683B
S1134250FA7B9A70104B1B69DBB203F03F03DAB2AE
S11342607B685A700C4B9B691B09DBB21B01FB7307
S1134270094BDB691B09DBB203F00F03DAB2FB7BEA
S11342801343FB737B68FA7B1A7000BF1037BD467B
S113429080BD00BFA0490000D0FF0FE080B483B010
S11342A000AF0346FB7197F90730002B0BDBFB795A
S11342B003F01F02064997F907305B09012000FA51
S11342C002F241F8232000BF0C37BD4680BC704782
S11342D000E100E080B483B000AF0346FB7197F9BE
S11342E00730002B0CDBFB7903F01F02074997F919
S11342F007305B09012000FA02F2603341F8232001
S113430000BF0C37BD4680BC704700BF00E100E031
S113431080B483B000AF03463960FB7197F907306E
S1134320002B0ADB3B68DAB20C4997F907305201DB
S1134330D2B20B4483F800230AE03B68DAB208499E
S1134340FB7903F00F03043B5201D2B20B441A76FB
S113435000BF0C37BD4680BC704700BF00E100E0E1
S113436000ED00E080B483B000AF7860034A7B685E
S1134370136300BF0C37BD4680BC70470010084073
S113438080B483B000AF7860054B5A6B7B68DB4325
S1134390034913404B6300BF0C37BD4680BC7047D4
S11343A00010084080B483B000AF7860054B5A6BAE
S11343B004497B6813434B6300BF0C37BD4680BC84
S11343C0704700BF0010084080B500AFFCF7C2F989
S11343D000BF80BD80B584B000AF0020FEF760FC54
S11343E0024632239A420AD00020FEF715FC3223FB
S11343F019460020FEF738FC0120FEF70DFC0720CB
S1134400FFF7B0FFEFF311824FF0BF0383F311887E
S1134410BFF36F8FBFF34F8FBA607B60FDF7BEFBB6
S1134420F860FB68002B07D0084B4FF080521A60ED
S1134430BFF34F8FBFF36F8F00233B603B6883F361
S1134440118800BF1037BD4680BD00BF04ED00E0F9
S1134450B0B586B000AF1D4B3C1D1D460FCD0FC43B
S11344602B68236001211A48FEF70CFF002102206B
S1134470FFF752FE02237B714FF440533B8101232B
S1134480FB6001237B753B1D1846FEF739FB0220B8
S1134490FFF776FFFF211F20FFF73AFF1F20FFF7EA
S11344A019FF1F20FFF7FAFE322319460020FEF7FA
S11344B0DBFB0220FFF756FF0220FFF773FFFEF736
S11344C005FC00BF1837BD46B0BD00BFB8490000A9
S11344D00043020080B400AF034BDB6C1B0EDBB265
S11344E01846BD4680BC7047B081E00F80B582B0ED
S11344F000AF0E4B01221A64FFF7ECFF0346FB7179
S11345003B1D1846FFF786FEFB790F2B0AD93B7932
S1134510022B07D9064B1B6823F05003044A43F0CF
S11345201003136000BF0837BD4680BD00000C4077
S1134530C0800C4080B584B000AF78607B68FB60BD
S1134540FB681B68BB60FB685B681846FBF704FFED
S1134550B868FDF7F7F9F6E780B582B002AFFFF768
S1134560C5FFFBF719FFFBF7ABFE0020FBF7D4FEFA
S11345700120FBF7D1FE00210020FCF7B9F800234D
S11345800193012300930B4B96220B490B48FDF733
S1134590B1F80023019301230093094B96220949A2
S11345A00648FDF7A7F8FDF7FDF900231846BD46B8
S11345B080BD00BF10000020CC490000354500003C
S11345C018000020D849000008B5074B044613B171
S11345D00021AFF30080054B1868836A03B1984744
S11345E0204600F03DF800BF00000000E449000050
S11345F070B500250C4E0D4CA41BA410A54209D186
S113460000F030F800250A4E0A4CA41BA410A54261
S113461005D170BD56F8253098470135EEE756F8B8
S1134620253098470135F2E7800000208000002003
S1134630800000208400002010B5431E0A449142EB
S113464000D110BD11F8014B03F8014FF7E7034601
S11346500244934200D1704703F8011BF9E70000BC
S1134660FEE700BFF8B500BFF8BC08BC9E46704723
S1134670F8B500BFF8BC08BC9E467047633A5C734B
S1134680696C69636F6E6C6162735C73696D706C85
S1134690696369747973747564696F5C76345C6496
S11346A06576656C6F7065725C73646B735C67656B
S11346B0636B6F5F73646B5F73756974655C76328B
S11346C02E375C706C6174666F726D5C656D6C69BD
S11346D0625C696E635C656D5F6770696F2E68000C
S11346E004000000020000000400000003000000B9
S11346F02E2E2F447269766572732F736C65657004
S11347002E6300002E2E2F4672656552544F532F90
S113471065666D333267672F686561705F312E633C
S1134720000000002E2E2F4672656552544F532F01
S113473065666D333267672F706F72745F6763638A
S11347402E6300002E2E2F4672656552544F532F50
S113475065666D333267672F71756575652E630005
S11347602E2E2F4672656552544F532F65666D3356
S11347703267672F7461736B732E630049444C4531
S113478000000000546D7220537663002E2E2F46D5
S113479072656552544F532F65666D333267672FC8
S11347A074696D6572732E6300000000546D72515C
S11347B0000000002E2E2F656D6C69622F656D5F01
S11347C062757274632E6300633A5C73696C696327
S11347D06F6E6C6162735C73696D706C696369742C
S11347E07973747564696F5C76345C646576656C42
S11347F06F7065725C73646B735C6765636B6F5F2A
S113480073646B5F73756974655C76322E375C70A4
S11348106C6174666F726D5C656D6C69625C696E07
S1134820635C656D5F636F6D6D6F6E2E6800000075
S1134830633A5C73696C69636F6E6C6162735C7319
S1134840696D706C696369747973747564696F5C9C
S113485076345C646576656C6F7065725C73646BEA
S1134860735C6765636B6F5F73646B5F73756974A7
S1134870655C76322E375C706C6174666F726D5C49
S1134880656D6C69625C696E635C656D5F636D75B3
S11348902E6800002E2E2F656D6C69622F656D5F8A
S11348A0636D752E63000000633A5C73696C696321
S11348B06F6E6C6162735C73696D706C696369744B
S11348C07973747564696F5C76345C646576656C61
S11348D06F7065725C73646B735C6765636B6F5F49
S11348E073646B5F73756974655C76322E375C70C4
S11348F06C6174666F726D5C656D6C69625C696E27
S1134900635C656D5F6770696F2E68002E2E2F657E
S11349106D6C69622F656D5F6770696F2E6300004F
S113492001000000000000000200000081000000FF
S113493004000000910000000800000001000000D5
S1134940100000000300000020000000DFEF000062
S1134950400000009FEF00008000000019070000E5
S11349600001000019060000000200001F040000FE
S1134970000400001F020000000800000100000005
S113498000100000010000000020000001000000F1
S11349900040000001000000008000000100000051
S11349A02E2E2F656D6C69622F656D5F737973743C
S11349B0656D2E630000000001010000003000005E
S11349C00100000000000000010000004C6564428A
S11349D06C696E6B310000004C6564426C696E6BEF
S10F49E032000000200000200000000055
S10B49EC30B7FF7F0100000059
S11349F4006CDC0200800000809FD500AAAAAAAA49
S1134A042800000000000000140000000100000061
S1134A14000000000000000000000000000000008E
S1134A24000000000000000000000000000000007E
S1134A34000000000000000000000000000000006E
S1134A44000000000000000000000000000000005E
S1134A54000000000000000000000000000000004E
S1134A64000000000000000000000000000000003E
S10B4A7401010000DD00000057
S90304B147
